{
  "_format": "hh-sol-artifact-1",
  "contractName": "NLTNFT",
  "sourceName": "contracts/Nlt.sol",
  "abi": [
    {
      "inputs": [],
      "stateMutability": "nonpayable",
      "type": "constructor"
    },
    {
      "anonymous": false,
      "inputs": [
        {
          "indexed": true,
          "internalType": "address",
          "name": "account",
          "type": "address"
        },
        {
          "indexed": true,
          "internalType": "address",
          "name": "operator",
          "type": "address"
        },
        {
          "indexed": false,
          "internalType": "bool",
          "name": "approved",
          "type": "bool"
        }
      ],
      "name": "ApprovalForAll",
      "type": "event"
    },
    {
      "anonymous": false,
      "inputs": [
        {
          "indexed": true,
          "internalType": "address",
          "name": "previousOwner",
          "type": "address"
        },
        {
          "indexed": true,
          "internalType": "address",
          "name": "newOwner",
          "type": "address"
        }
      ],
      "name": "OwnershipTransferred",
      "type": "event"
    },
    {
      "anonymous": false,
      "inputs": [
        {
          "indexed": true,
          "internalType": "address",
          "name": "operator",
          "type": "address"
        },
        {
          "indexed": true,
          "internalType": "address",
          "name": "from",
          "type": "address"
        },
        {
          "indexed": true,
          "internalType": "address",
          "name": "to",
          "type": "address"
        },
        {
          "indexed": false,
          "internalType": "uint256[]",
          "name": "ids",
          "type": "uint256[]"
        },
        {
          "indexed": false,
          "internalType": "uint256[]",
          "name": "values",
          "type": "uint256[]"
        }
      ],
      "name": "TransferBatch",
      "type": "event"
    },
    {
      "anonymous": false,
      "inputs": [
        {
          "indexed": true,
          "internalType": "address",
          "name": "operator",
          "type": "address"
        },
        {
          "indexed": true,
          "internalType": "address",
          "name": "from",
          "type": "address"
        },
        {
          "indexed": true,
          "internalType": "address",
          "name": "to",
          "type": "address"
        },
        {
          "indexed": false,
          "internalType": "uint256",
          "name": "id",
          "type": "uint256"
        },
        {
          "indexed": false,
          "internalType": "uint256",
          "name": "value",
          "type": "uint256"
        }
      ],
      "name": "TransferSingle",
      "type": "event"
    },
    {
      "anonymous": false,
      "inputs": [
        {
          "indexed": false,
          "internalType": "string",
          "name": "value",
          "type": "string"
        },
        {
          "indexed": true,
          "internalType": "uint256",
          "name": "id",
          "type": "uint256"
        }
      ],
      "name": "URI",
      "type": "event"
    },
    {
      "inputs": [
        {
          "internalType": "uint256",
          "name": "_price",
          "type": "uint256"
        },
        {
          "internalType": "uint256",
          "name": "_maxSupply",
          "type": "uint256"
        }
      ],
      "name": "addNewToken",
      "outputs": [],
      "stateMutability": "nonpayable",
      "type": "function"
    },
    {
      "inputs": [
        {
          "internalType": "address",
          "name": "account",
          "type": "address"
        },
        {
          "internalType": "uint256",
          "name": "id",
          "type": "uint256"
        }
      ],
      "name": "balanceOf",
      "outputs": [
        {
          "internalType": "uint256",
          "name": "",
          "type": "uint256"
        }
      ],
      "stateMutability": "view",
      "type": "function"
    },
    {
      "inputs": [
        {
          "internalType": "address[]",
          "name": "accounts",
          "type": "address[]"
        },
        {
          "internalType": "uint256[]",
          "name": "ids",
          "type": "uint256[]"
        }
      ],
      "name": "balanceOfBatch",
      "outputs": [
        {
          "internalType": "uint256[]",
          "name": "",
          "type": "uint256[]"
        }
      ],
      "stateMutability": "view",
      "type": "function"
    },
    {
      "inputs": [
        {
          "internalType": "address",
          "name": "account",
          "type": "address"
        },
        {
          "internalType": "address",
          "name": "operator",
          "type": "address"
        }
      ],
      "name": "isApprovedForAll",
      "outputs": [
        {
          "internalType": "bool",
          "name": "",
          "type": "bool"
        }
      ],
      "stateMutability": "view",
      "type": "function"
    },
    {
      "inputs": [],
      "name": "isPublicMintEnable",
      "outputs": [
        {
          "internalType": "bool",
          "name": "",
          "type": "bool"
        }
      ],
      "stateMutability": "view",
      "type": "function"
    },
    {
      "inputs": [],
      "name": "maxPerWallet",
      "outputs": [
        {
          "internalType": "uint256",
          "name": "",
          "type": "uint256"
        }
      ],
      "stateMutability": "view",
      "type": "function"
    },
    {
      "inputs": [
        {
          "internalType": "uint256",
          "name": "",
          "type": "uint256"
        }
      ],
      "name": "maxSupplys",
      "outputs": [
        {
          "internalType": "uint256",
          "name": "",
          "type": "uint256"
        }
      ],
      "stateMutability": "view",
      "type": "function"
    },
    {
      "inputs": [
        {
          "internalType": "uint256",
          "name": "id",
          "type": "uint256"
        }
      ],
      "name": "mint",
      "outputs": [],
      "stateMutability": "payable",
      "type": "function"
    },
    {
      "inputs": [
        {
          "internalType": "uint256",
          "name": "",
          "type": "uint256"
        }
      ],
      "name": "mintPrices",
      "outputs": [
        {
          "internalType": "uint256",
          "name": "",
          "type": "uint256"
        }
      ],
      "stateMutability": "view",
      "type": "function"
    },
    {
      "inputs": [],
      "name": "owner",
      "outputs": [
        {
          "internalType": "address",
          "name": "",
          "type": "address"
        }
      ],
      "stateMutability": "view",
      "type": "function"
    },
    {
      "inputs": [],
      "name": "renounceOwnership",
      "outputs": [],
      "stateMutability": "nonpayable",
      "type": "function"
    },
    {
      "inputs": [
        {
          "internalType": "address",
          "name": "from",
          "type": "address"
        },
        {
          "internalType": "address",
          "name": "to",
          "type": "address"
        },
        {
          "internalType": "uint256[]",
          "name": "ids",
          "type": "uint256[]"
        },
        {
          "internalType": "uint256[]",
          "name": "amounts",
          "type": "uint256[]"
        },
        {
          "internalType": "bytes",
          "name": "data",
          "type": "bytes"
        }
      ],
      "name": "safeBatchTransferFrom",
      "outputs": [],
      "stateMutability": "nonpayable",
      "type": "function"
    },
    {
      "inputs": [
        {
          "internalType": "address",
          "name": "from",
          "type": "address"
        },
        {
          "internalType": "address",
          "name": "to",
          "type": "address"
        },
        {
          "internalType": "uint256",
          "name": "id",
          "type": "uint256"
        },
        {
          "internalType": "uint256",
          "name": "amount",
          "type": "uint256"
        },
        {
          "internalType": "bytes",
          "name": "data",
          "type": "bytes"
        }
      ],
      "name": "safeTransferFrom",
      "outputs": [],
      "stateMutability": "nonpayable",
      "type": "function"
    },
    {
      "inputs": [
        {
          "internalType": "address",
          "name": "operator",
          "type": "address"
        },
        {
          "internalType": "bool",
          "name": "approved",
          "type": "bool"
        }
      ],
      "name": "setApprovalForAll",
      "outputs": [],
      "stateMutability": "nonpayable",
      "type": "function"
    },
    {
      "inputs": [
        {
          "internalType": "string",
          "name": "_basetokenUri",
          "type": "string"
        }
      ],
      "name": "setBaseTokenUri",
      "outputs": [],
      "stateMutability": "nonpayable",
      "type": "function"
    },
    {
      "inputs": [
        {
          "internalType": "bool",
          "name": "_isPublicMintEnable",
          "type": "bool"
        }
      ],
      "name": "setIsPublicMintEnable",
      "outputs": [],
      "stateMutability": "nonpayable",
      "type": "function"
    },
    {
      "inputs": [
        {
          "internalType": "bytes4",
          "name": "interfaceId",
          "type": "bytes4"
        }
      ],
      "name": "supportsInterface",
      "outputs": [
        {
          "internalType": "bool",
          "name": "",
          "type": "bool"
        }
      ],
      "stateMutability": "view",
      "type": "function"
    },
    {
      "inputs": [
        {
          "internalType": "uint256",
          "name": "",
          "type": "uint256"
        }
      ],
      "name": "tiers",
      "outputs": [
        {
          "internalType": "uint256",
          "name": "",
          "type": "uint256"
        }
      ],
      "stateMutability": "view",
      "type": "function"
    },
    {
      "inputs": [
        {
          "internalType": "uint256",
          "name": "",
          "type": "uint256"
        }
      ],
      "name": "totalSupplys",
      "outputs": [
        {
          "internalType": "uint256",
          "name": "",
          "type": "uint256"
        }
      ],
      "stateMutability": "view",
      "type": "function"
    },
    {
      "inputs": [
        {
          "internalType": "address",
          "name": "newOwner",
          "type": "address"
        }
      ],
      "name": "transferOwnership",
      "outputs": [],
      "stateMutability": "nonpayable",
      "type": "function"
    },
    {
      "inputs": [
        {
          "internalType": "uint256",
          "name": "_tokenId",
          "type": "uint256"
        }
      ],
      "name": "uri",
      "outputs": [
        {
          "internalType": "string",
          "name": "",
          "type": "string"
        }
      ],
      "stateMutability": "view",
      "type": "function"
    },
    {
      "inputs": [
        {
          "internalType": "address",
          "name": "",
          "type": "address"
        }
      ],
      "name": "walletMint",
      "outputs": [
        {
          "internalType": "uint256",
          "name": "",
          "type": "uint256"
        }
      ],
      "stateMutability": "view",
      "type": "function"
    },
    {
      "inputs": [],
      "name": "withdraw",
      "outputs": [],
      "stateMutability": "nonpayable",
      "type": "function"
    },
    {
      "inputs": [],
      "name": "withdrawWallet",
      "outputs": [
        {
          "internalType": "address payable",
          "name": "",
          "type": "address"
        }
      ],
      "stateMutability": "view",
      "type": "function"
    }
  ],
  "bytecode": "0x60806040523480156200001157600080fd5b506040518060600160405280602481526020016200508b602491396200003d816200028660201b60201c565b506200005e62000052620002a260201b60201c565b620002aa60201b60201c565b6040518060600160405280600060ff168152602001600160ff168152602001600260ff168152506004906003620000979291906200085e565b506040518060600160405280670de0b6b3a764000067ffffffffffffffff168152602001671bc16d674ec8000067ffffffffffffffff168152602001673782dace9d90000067ffffffffffffffff168152506005906003620000fb929190620008b5565b506040518060600160405280600160ff168152602001600160ff168152602001600160ff168152506006906003620001359291906200085e565b506040518060600160405280607860ff168152602001606460ff168152602001601e60ff1681525060079060036200016f9291906200085e565b506001600960006101000a81548160ff02191690831515021790555060036008819055506040518060400160405280601b81526020017f68747470733a2f2f6e6c742e726f636b732f6d657461646174612f0000000000815250600a9080519060200190620001e092919062000913565b5060005b6001600480549050620001f8919062000cd9565b8110156200027f5762000269336004838154811062000240577f4e487b7100000000000000000000000000000000000000000000000000000000600052603260045260246000fd5b90600052602060002001546001604051806020016040528060008152506200037060201b60201c565b8080620002769062000e20565b915050620001e4565b50620010e7565b80600290805190602001906200029e92919062000913565b5050565b600033905090565b6000600360009054906101000a900473ffffffffffffffffffffffffffffffffffffffff16905081600360006101000a81548173ffffffffffffffffffffffffffffffffffffffff021916908373ffffffffffffffffffffffffffffffffffffffff1602179055508173ffffffffffffffffffffffffffffffffffffffff168173ffffffffffffffffffffffffffffffffffffffff167f8be0079c531659141344cd1fd0a4f28419497f9722a3daafe3b4186f6b6457e060405160405180910390a35050565b600073ffffffffffffffffffffffffffffffffffffffff168473ffffffffffffffffffffffffffffffffffffffff161415620003e3576040517f08c379a0000000000000000000000000000000000000000000000000000000008152600401620003da9062000beb565b60405180910390fd5b6000620003f5620002a260201b60201c565b905060006200040a856200055860201b60201c565b905060006200041f856200055860201b60201c565b905062000438836000898585896200062160201b60201c565b8460008088815260200190815260200160002060008973ffffffffffffffffffffffffffffffffffffffff1673ffffffffffffffffffffffffffffffffffffffff168152602001908152602001600020600082825462000499919062000c7c565b925050819055508673ffffffffffffffffffffffffffffffffffffffff16600073ffffffffffffffffffffffffffffffffffffffff168473ffffffffffffffffffffffffffffffffffffffff167fc3d58168c5ae7397731d063d5bbf3d657854427343f4c083240f7aacaa2d0f6289896040516200051992919062000c0d565b60405180910390a462000538836000898585896200062960201b60201c565b6200054f836000898989896200063160201b60201c565b50505050505050565b60606000600167ffffffffffffffff8111156200059e577f4e487b7100000000000000000000000000000000000000000000000000000000600052604160045260246000fd5b604051908082528060200260200182016040528015620005cd5781602001602082028036833780820191505090505b50905082816000815181106200060c577f4e487b7100000000000000000000000000000000000000000000000000000000600052603260045260246000fd5b60200260200101818152505080915050919050565b505050505050565b505050505050565b6200065d8473ffffffffffffffffffffffffffffffffffffffff166200083b60201b620014c71760201c565b1562000833578373ffffffffffffffffffffffffffffffffffffffff1663f23a6e6187878686866040518663ffffffff1660e01b8152600401620006a695949392919062000b1f565b602060405180830381600087803b158015620006c157600080fd5b505af1925050508015620006f557506040513d601f19601f82011682018060405250810190620006f29190620009da565b60015b620007a7576200070462000efb565b806308c379a014156200076857506200071c6200102b565b806200072957506200076a565b806040517f08c379a00000000000000000000000000000000000000000000000000000000081526004016200075f919062000b83565b60405180910390fd5b505b6040517f08c379a00000000000000000000000000000000000000000000000000000000081526004016200079e9062000ba7565b60405180910390fd5b63f23a6e6160e01b7bffffffffffffffffffffffffffffffffffffffffffffffffffffffff1916817bffffffffffffffffffffffffffffffffffffffffffffffffffffffff19161462000831576040517f08c379a0000000000000000000000000000000000000000000000000000000008152600401620008289062000bc9565b60405180910390fd5b505b505050505050565b6000808273ffffffffffffffffffffffffffffffffffffffff163b119050919050565b828054828255906000526020600020908101928215620008a2579160200282015b82811115620008a1578251829060ff169055916020019190600101906200087f565b5b509050620008b19190620009a4565b5090565b82805482825590600052602060002090810192821562000900579160200282015b82811115620008ff578251829067ffffffffffffffff16905591602001919060010190620008d6565b5b5090506200090f9190620009a4565b5090565b828054620009219062000db4565b90600052602060002090601f01602090048101928262000945576000855562000991565b82601f106200096057805160ff191683800117855562000991565b8280016001018555821562000991579182015b828111156200099057825182559160200191906001019062000973565b5b509050620009a09190620009a4565b5090565b5b80821115620009bf576000816000905550600101620009a5565b5090565b600081519050620009d481620010cd565b92915050565b600060208284031215620009ed57600080fd5b6000620009fd84828501620009c3565b91505092915050565b62000a118162000d14565b82525050565b600062000a248262000c44565b62000a30818562000c5a565b935062000a4281856020860162000d7e565b62000a4d8162000f20565b840191505092915050565b600062000a658262000c4f565b62000a71818562000c6b565b935062000a8381856020860162000d7e565b62000a8e8162000f20565b840191505092915050565b600062000aa860348362000c6b565b915062000ab58262000f3e565b604082019050919050565b600062000acf60288362000c6b565b915062000adc8262000f8d565b604082019050919050565b600062000af660218362000c6b565b915062000b038262000fdc565b604082019050919050565b62000b198162000d74565b82525050565b600060a08201905062000b36600083018862000a06565b62000b45602083018762000a06565b62000b54604083018662000b0e565b62000b63606083018562000b0e565b818103608083015262000b77818462000a17565b90509695505050505050565b6000602082019050818103600083015262000b9f818462000a58565b905092915050565b6000602082019050818103600083015262000bc28162000a99565b9050919050565b6000602082019050818103600083015262000be48162000ac0565b9050919050565b6000602082019050818103600083015262000c068162000ae7565b9050919050565b600060408201905062000c24600083018562000b0e565b62000c33602083018462000b0e565b9392505050565b6000604051905090565b600081519050919050565b600081519050919050565b600082825260208201905092915050565b600082825260208201905092915050565b600062000c898262000d74565b915062000c968362000d74565b9250827fffffffffffffffffffffffffffffffffffffffffffffffffffffffffffffffff0382111562000cce5762000ccd62000e6e565b5b828201905092915050565b600062000ce68262000d74565b915062000cf38362000d74565b92508282101562000d095762000d0862000e6e565b5b828203905092915050565b600062000d218262000d54565b9050919050565b60007fffffffff0000000000000000000000000000000000000000000000000000000082169050919050565b600073ffffffffffffffffffffffffffffffffffffffff82169050919050565b6000819050919050565b60005b8381101562000d9e57808201518184015260208101905062000d81565b8381111562000dae576000848401525b50505050565b6000600282049050600182168062000dcd57607f821691505b6020821081141562000de45762000de362000e9d565b5b50919050565b62000df58262000f20565b810181811067ffffffffffffffff8211171562000e175762000e1662000ecc565b5b80604052505050565b600062000e2d8262000d74565b91507fffffffffffffffffffffffffffffffffffffffffffffffffffffffffffffffff82141562000e635762000e6262000e6e565b5b600182019050919050565b7f4e487b7100000000000000000000000000000000000000000000000000000000600052601160045260246000fd5b7f4e487b7100000000000000000000000000000000000000000000000000000000600052602260045260246000fd5b7f4e487b7100000000000000000000000000000000000000000000000000000000600052604160045260246000fd5b600060033d111562000f1d5760046000803e62000f1a60005162000f31565b90505b90565b6000601f19601f8301169050919050565b60008160e01c9050919050565b7f455243313135353a207472616e7366657220746f206e6f6e204552433131353560008201527f526563656976657220696d706c656d656e746572000000000000000000000000602082015250565b7f455243313135353a204552433131353552656365697665722072656a6563746560008201527f6420746f6b656e73000000000000000000000000000000000000000000000000602082015250565b7f455243313135353a206d696e7420746f20746865207a65726f2061646472657360008201527f7300000000000000000000000000000000000000000000000000000000000000602082015250565b600060443d10156200103d57620010ca565b6200104762000c3a565b60043d036004823e80513d602482011167ffffffffffffffff8211171562001071575050620010ca565b808201805167ffffffffffffffff811115620010915750505050620010ca565b80602083010160043d038501811115620010b0575050505050620010ca565b620010c18260200185018662000dea565b82955050505050505b90565b620010d88162000d28565b8114620010e457600080fd5b50565b613f9480620010f76000396000f3fe60806040526004361061014a5760003560e01c80638584b2e0116100b6578063a22cb4651161006f578063a22cb465146104a8578063b70056e4146104d1578063c45580d41461050e578063e985e9c514610537578063f242432a14610574578063f2fde38b1461059d5761014a565b80638584b2e0146103a557806385d178f4146103e257806389f0d4011461040d5780638da5cb5b1461043857806395652cfa14610463578063a0712d681461048c5761014a565b80633ccfd60b116101085780633ccfd60b146102a9578063453c2310146102c05780634e1273f4146102eb5780636187b33e1461032857806364298d2d14610365578063715018a61461038e5761014a565b8062fdd58e1461014f57806301ffc9a71461018c578063039af9eb146101c95780630e89341c146102065780631056ae31146102435780632eb2c2d614610280575b600080fd5b34801561015b57600080fd5b5061017660048036038101906101719190612a74565b6105c6565b60405161018391906134ba565b60405180910390f35b34801561019857600080fd5b506101b360048036038101906101ae9190612b45565b61068f565b6040516101c0919061323d565b60405180910390f35b3480156101d557600080fd5b506101f060048036038101906101eb9190612bdc565b610771565b6040516101fd91906134ba565b60405180910390f35b34801561021257600080fd5b5061022d60048036038101906102289190612bdc565b610795565b60405161023a9190613258565b60405180910390f35b34801561024f57600080fd5b5061026a60048036038101906102659190612885565b6107c9565b60405161027791906134ba565b60405180910390f35b34801561028c57600080fd5b506102a760048036038101906102a291906128ea565b6107e1565b005b3480156102b557600080fd5b506102be610882565b005b3480156102cc57600080fd5b506102d5610991565b6040516102e291906134ba565b60405180910390f35b3480156102f757600080fd5b50610312600480360381019061030d9190612ab0565b610997565b60405161031f91906131e4565b60405180910390f35b34801561033457600080fd5b5061034f600480360381019061034a9190612bdc565b610b48565b60405161035c91906134ba565b60405180910390f35b34801561037157600080fd5b5061038c60048036038101906103879190612c05565b610b6c565b005b34801561039a57600080fd5b506103a3610d0c565b005b3480156103b157600080fd5b506103cc60048036038101906103c79190612bdc565b610d94565b6040516103d991906134ba565b60405180910390f35b3480156103ee57600080fd5b506103f7610db8565b6040516104049190613107565b60405180910390f35b34801561041957600080fd5b50610422610dde565b60405161042f919061323d565b60405180910390f35b34801561044457600080fd5b5061044d610df1565b60405161045a91906130ec565b60405180910390f35b34801561046f57600080fd5b5061048a60048036038101906104859190612b97565b610e1b565b005b6104a660048036038101906104a19190612bdc565b610ead565b005b3480156104b457600080fd5b506104cf60048036038101906104ca9190612a38565b6111c7565b005b3480156104dd57600080fd5b506104f860048036038101906104f39190612bdc565b6111dd565b60405161050591906134ba565b60405180910390f35b34801561051a57600080fd5b5061053560048036038101906105309190612b1c565b611201565b005b34801561054357600080fd5b5061055e600480360381019061055991906128ae565b61129a565b60405161056b919061323d565b60405180910390f35b34801561058057600080fd5b5061059b600480360381019061059691906129a9565b61132e565b005b3480156105a957600080fd5b506105c460048036038101906105bf9190612885565b6113cf565b005b60008073ffffffffffffffffffffffffffffffffffffffff168373ffffffffffffffffffffffffffffffffffffffff161415610637576040517f08c379a000000000000000000000000000000000000000000000000000000000815260040161062e906132ba565b60405180910390fd5b60008083815260200190815260200160002060008473ffffffffffffffffffffffffffffffffffffffff1673ffffffffffffffffffffffffffffffffffffffff16815260200190815260200160002054905092915050565b60007fd9b67a26000000000000000000000000000000000000000000000000000000007bffffffffffffffffffffffffffffffffffffffffffffffffffffffff1916827bffffffffffffffffffffffffffffffffffffffffffffffffffffffff1916148061075a57507f0e89341c000000000000000000000000000000000000000000000000000000007bffffffffffffffffffffffffffffffffffffffffffffffffffffffff1916827bffffffffffffffffffffffffffffffffffffffffffffffffffffffff1916145b8061076a5750610769826114ea565b5b9050919050565b6004818154811061078157600080fd5b906000526020600020016000915090505481565b6060600a6107a283611554565b6040516020016107b39291906130bd565b6040516020818303038152906040529050919050565b600c6020528060005260406000206000915090505481565b6107e9611701565b73ffffffffffffffffffffffffffffffffffffffff168573ffffffffffffffffffffffffffffffffffffffff16148061082f575061082e85610829611701565b61129a565b5b61086e576040517f08c379a00000000000000000000000000000000000000000000000000000000081526004016108659061335a565b60405180910390fd5b61087b8585858585611709565b5050505050565b61088a611701565b73ffffffffffffffffffffffffffffffffffffffff166108a8610df1565b73ffffffffffffffffffffffffffffffffffffffff16146108fe576040517f08c379a00000000000000000000000000000000000000000000000000000000081526004016108f5906133da565b60405180910390fd5b60004711610941576040517f08c379a00000000000000000000000000000000000000000000000000000000081526004016109389061341a565b60405180910390fd5b610949610df1565b73ffffffffffffffffffffffffffffffffffffffff166108fc479081150290604051600060405180830381858888f1935050505015801561098e573d6000803e3d6000fd5b50565b60085481565b606081518351146109dd576040517f08c379a00000000000000000000000000000000000000000000000000000000081526004016109d49061345a565b60405180910390fd5b6000835167ffffffffffffffff811115610a20577f4e487b7100000000000000000000000000000000000000000000000000000000600052604160045260246000fd5b604051908082528060200260200182016040528015610a4e5781602001602082028036833780820191505090505b50905060005b8451811015610b3d57610ae7858281518110610a99577f4e487b7100000000000000000000000000000000000000000000000000000000600052603260045260246000fd5b6020026020010151858381518110610ada577f4e487b7100000000000000000000000000000000000000000000000000000000600052603260045260246000fd5b60200260200101516105c6565b828281518110610b20577f4e487b7100000000000000000000000000000000000000000000000000000000600052603260045260246000fd5b60200260200101818152505080610b3690613823565b9050610a54565b508091505092915050565b60058181548110610b5857600080fd5b906000526020600020016000915090505481565b610b74611701565b73ffffffffffffffffffffffffffffffffffffffff16610b92610df1565b73ffffffffffffffffffffffffffffffffffffffff1614610be8576040517f08c379a0000000000000000000000000000000000000000000000000000000008152600401610bdf906133da565b60405180910390fd5b60006001600480549050610bfc91906136c4565b905060048080549050908060018154018082558091505060019003906000526020600020016000909190919091505560058390806001815401808255809150506001900390600052602060002001600090919091909150556006600190806001815401808255809150506001900390600052602060002001600090919091909150556007829080600181540180825580915050600190039060005260206000200160009091909190915055610d073360048381548110610ce5577f4e487b7100000000000000000000000000000000000000000000000000000000600052603260045260246000fd5b9060005260206000200154600160405180602001604052806000815250611a77565b505050565b610d14611701565b73ffffffffffffffffffffffffffffffffffffffff16610d32610df1565b73ffffffffffffffffffffffffffffffffffffffff1614610d88576040517f08c379a0000000000000000000000000000000000000000000000000000000008152600401610d7f906133da565b60405180910390fd5b610d926000611c28565b565b60078181548110610da457600080fd5b906000526020600020016000915090505481565b600b60009054906101000a900473ffffffffffffffffffffffffffffffffffffffff1681565b600960009054906101000a900460ff1681565b6000600360009054906101000a900473ffffffffffffffffffffffffffffffffffffffff16905090565b610e23611701565b73ffffffffffffffffffffffffffffffffffffffff16610e41610df1565b73ffffffffffffffffffffffffffffffffffffffff1614610e97576040517f08c379a0000000000000000000000000000000000000000000000000000000008152600401610e8e906133da565b60405180910390fd5b8181600a9190610ea892919061259b565b505050565b600960009054906101000a900460ff16610efc576040517f08c379a0000000000000000000000000000000000000000000000000000000008152600401610ef39061337a565b60405180910390fd5b600854600c60003373ffffffffffffffffffffffffffffffffffffffff1673ffffffffffffffffffffffffffffffffffffffff168152602001908152602001600020541115610f80576040517f08c379a0000000000000000000000000000000000000000000000000000000008152600401610f77906133ba565b60405180910390fd5b60005b6001600480549050610f9591906136c4565b8110156111c357808214156111b05760078181548110610fde577f4e487b7100000000000000000000000000000000000000000000000000000000600052603260045260246000fd5b906000526020600020015460068281548110611023577f4e487b7100000000000000000000000000000000000000000000000000000000600052603260045260246000fd5b9060005260206000200154111561106f576040517f08c379a0000000000000000000000000000000000000000000000000000000008152600401611066906133fa565b60405180910390fd5b600581815481106110a9577f4e487b7100000000000000000000000000000000000000000000000000000000600052603260045260246000fd5b906000526020600020015434146110f5576040517f08c379a00000000000000000000000000000000000000000000000000000000081526004016110ec9061331a565b60405180910390fd5b6006818154811061112f577f4e487b7100000000000000000000000000000000000000000000000000000000600052603260045260246000fd5b90600052602060002001600081548092919061114a90613823565b91905055506111af336004838154811061118d577f4e487b7100000000000000000000000000000000000000000000000000000000600052603260045260246000fd5b9060005260206000200154600160405180602001604052806000815250611a77565b5b80806111bb90613823565b915050610f83565b5050565b6111d96111d2611701565b8383611cee565b5050565b600681815481106111ed57600080fd5b906000526020600020016000915090505481565b611209611701565b73ffffffffffffffffffffffffffffffffffffffff16611227610df1565b73ffffffffffffffffffffffffffffffffffffffff161461127d576040517f08c379a0000000000000000000000000000000000000000000000000000000008152600401611274906133da565b60405180910390fd5b80600960006101000a81548160ff02191690831515021790555050565b6000600160008473ffffffffffffffffffffffffffffffffffffffff1673ffffffffffffffffffffffffffffffffffffffff16815260200190815260200160002060008373ffffffffffffffffffffffffffffffffffffffff1673ffffffffffffffffffffffffffffffffffffffff16815260200190815260200160002060009054906101000a900460ff16905092915050565b611336611701565b73ffffffffffffffffffffffffffffffffffffffff168573ffffffffffffffffffffffffffffffffffffffff16148061137c575061137b85611376611701565b61129a565b5b6113bb576040517f08c379a00000000000000000000000000000000000000000000000000000000081526004016113b2906132fa565b60405180910390fd5b6113c88585858585611e5b565b5050505050565b6113d7611701565b73ffffffffffffffffffffffffffffffffffffffff166113f5610df1565b73ffffffffffffffffffffffffffffffffffffffff161461144b576040517f08c379a0000000000000000000000000000000000000000000000000000000008152600401611442906133da565b60405180910390fd5b600073ffffffffffffffffffffffffffffffffffffffff168173ffffffffffffffffffffffffffffffffffffffff1614156114bb576040517f08c379a00000000000000000000000000000000000000000000000000000000081526004016114b2906132da565b60405180910390fd5b6114c481611c28565b50565b6000808273ffffffffffffffffffffffffffffffffffffffff163b119050919050565b60007f01ffc9a7000000000000000000000000000000000000000000000000000000007bffffffffffffffffffffffffffffffffffffffffffffffffffffffff1916827bffffffffffffffffffffffffffffffffffffffffffffffffffffffff1916149050919050565b6060600082141561159c576040518060400160405280600181526020017f300000000000000000000000000000000000000000000000000000000000000081525090506116fc565b600082905060005b600082146115ce5780806115b790613823565b915050600a826115c79190613693565b91506115a4565b60008167ffffffffffffffff811115611610577f4e487b7100000000000000000000000000000000000000000000000000000000600052604160045260246000fd5b6040519080825280601f01601f1916602001820160405280156116425781602001600182028036833780820191505090505b5090505b600085146116f55760018261165b91906136c4565b9150600a8561166a919061386c565b6030611676919061363d565b60f81b8183815181106116b2577f4e487b7100000000000000000000000000000000000000000000000000000000600052603260045260246000fd5b60200101907effffffffffffffffffffffffffffffffffffffffffffffffffffffffffffff1916908160001a905350600a856116ee9190613693565b9450611646565b8093505050505b919050565b600033905090565b815183511461174d576040517f08c379a00000000000000000000000000000000000000000000000000000000081526004016117449061347a565b60405180910390fd5b600073ffffffffffffffffffffffffffffffffffffffff168473ffffffffffffffffffffffffffffffffffffffff1614156117bd576040517f08c379a00000000000000000000000000000000000000000000000000000000081526004016117b49061333a565b60405180910390fd5b60006117c7611701565b90506117d78187878787876120f7565b60005b84518110156119d457600085828151811061181e577f4e487b7100000000000000000000000000000000000000000000000000000000600052603260045260246000fd5b602002602001015190506000858381518110611863577f4e487b7100000000000000000000000000000000000000000000000000000000600052603260045260246000fd5b60200260200101519050600080600084815260200190815260200160002060008b73ffffffffffffffffffffffffffffffffffffffff1673ffffffffffffffffffffffffffffffffffffffff16815260200190815260200160002054905081811015611904576040517f08c379a00000000000000000000000000000000000000000000000000000000081526004016118fb9061339a565b60405180910390fd5b81810360008085815260200190815260200160002060008c73ffffffffffffffffffffffffffffffffffffffff1673ffffffffffffffffffffffffffffffffffffffff168152602001908152602001600020819055508160008085815260200190815260200160002060008b73ffffffffffffffffffffffffffffffffffffffff1673ffffffffffffffffffffffffffffffffffffffff16815260200190815260200160002060008282546119b9919061363d565b92505081905550505050806119cd90613823565b90506117da565b508473ffffffffffffffffffffffffffffffffffffffff168673ffffffffffffffffffffffffffffffffffffffff168273ffffffffffffffffffffffffffffffffffffffff167f4a39dc06d4c0dbc64b70af90fd698a233a518aa5d07e595d983b8c0526c8f7fb8787604051611a4b929190613206565b60405180910390a4611a618187878787876120ff565b611a6f818787878787612107565b505050505050565b600073ffffffffffffffffffffffffffffffffffffffff168473ffffffffffffffffffffffffffffffffffffffff161415611ae7576040517f08c379a0000000000000000000000000000000000000000000000000000000008152600401611ade9061349a565b60405180910390fd5b6000611af1611701565b90506000611afe856122ee565b90506000611b0b856122ee565b9050611b1c836000898585896120f7565b8460008088815260200190815260200160002060008973ffffffffffffffffffffffffffffffffffffffff1673ffffffffffffffffffffffffffffffffffffffff1681526020019081526020016000206000828254611b7b919061363d565b925050819055508673ffffffffffffffffffffffffffffffffffffffff16600073ffffffffffffffffffffffffffffffffffffffff168473ffffffffffffffffffffffffffffffffffffffff167fc3d58168c5ae7397731d063d5bbf3d657854427343f4c083240f7aacaa2d0f628989604051611bf99291906134d5565b60405180910390a4611c10836000898585896120ff565b611c1f836000898989896123b4565b50505050505050565b6000600360009054906101000a900473ffffffffffffffffffffffffffffffffffffffff16905081600360006101000a81548173ffffffffffffffffffffffffffffffffffffffff021916908373ffffffffffffffffffffffffffffffffffffffff1602179055508173ffffffffffffffffffffffffffffffffffffffff168173ffffffffffffffffffffffffffffffffffffffff167f8be0079c531659141344cd1fd0a4f28419497f9722a3daafe3b4186f6b6457e060405160405180910390a35050565b8173ffffffffffffffffffffffffffffffffffffffff168373ffffffffffffffffffffffffffffffffffffffff161415611d5d576040517f08c379a0000000000000000000000000000000000000000000000000000000008152600401611d549061343a565b60405180910390fd5b80600160008573ffffffffffffffffffffffffffffffffffffffff1673ffffffffffffffffffffffffffffffffffffffff16815260200190815260200160002060008473ffffffffffffffffffffffffffffffffffffffff1673ffffffffffffffffffffffffffffffffffffffff16815260200190815260200160002060006101000a81548160ff0219169083151502179055508173ffffffffffffffffffffffffffffffffffffffff168373ffffffffffffffffffffffffffffffffffffffff167f17307eab39ab6107e8899845ad3d59bd9653f200f220920489ca2b5937696c3183604051611e4e919061323d565b60405180910390a3505050565b600073ffffffffffffffffffffffffffffffffffffffff168473ffffffffffffffffffffffffffffffffffffffff161415611ecb576040517f08c379a0000000000000000000000000000000000000000000000000000000008152600401611ec29061333a565b60405180910390fd5b6000611ed5611701565b90506000611ee2856122ee565b90506000611eef856122ee565b9050611eff8389898585896120f7565b600080600088815260200190815260200160002060008a73ffffffffffffffffffffffffffffffffffffffff1673ffffffffffffffffffffffffffffffffffffffff16815260200190815260200160002054905085811015611f96576040517f08c379a0000000000000000000000000000000000000000000000000000000008152600401611f8d9061339a565b60405180910390fd5b85810360008089815260200190815260200160002060008b73ffffffffffffffffffffffffffffffffffffffff1673ffffffffffffffffffffffffffffffffffffffff168152602001908152602001600020819055508560008089815260200190815260200160002060008a73ffffffffffffffffffffffffffffffffffffffff1673ffffffffffffffffffffffffffffffffffffffff168152602001908152602001600020600082825461204b919061363d565b925050819055508773ffffffffffffffffffffffffffffffffffffffff168973ffffffffffffffffffffffffffffffffffffffff168573ffffffffffffffffffffffffffffffffffffffff167fc3d58168c5ae7397731d063d5bbf3d657854427343f4c083240f7aacaa2d0f628a8a6040516120c89291906134d5565b60405180910390a46120de848a8a86868a6120ff565b6120ec848a8a8a8a8a6123b4565b505050505050505050565b505050505050565b505050505050565b6121268473ffffffffffffffffffffffffffffffffffffffff166114c7565b156122e6578373ffffffffffffffffffffffffffffffffffffffff1663bc197c8187878686866040518663ffffffff1660e01b815260040161216c959493929190613122565b602060405180830381600087803b15801561218657600080fd5b505af19250505080156121b757506040513d601f19601f820116820180604052508101906121b49190612b6e565b60015b61225d576121c3613959565b806308c379a0141561222057506121d8613e6c565b806121e35750612222565b806040517f08c379a00000000000000000000000000000000000000000000000000000000081526004016122179190613258565b60405180910390fd5b505b6040517f08c379a00000000000000000000000000000000000000000000000000000000081526004016122549061327a565b60405180910390fd5b63bc197c8160e01b7bffffffffffffffffffffffffffffffffffffffffffffffffffffffff1916817bffffffffffffffffffffffffffffffffffffffffffffffffffffffff1916146122e4576040517f08c379a00000000000000000000000000000000000000000000000000000000081526004016122db9061329a565b60405180910390fd5b505b505050505050565b60606000600167ffffffffffffffff811115612333577f4e487b7100000000000000000000000000000000000000000000000000000000600052604160045260246000fd5b6040519080825280602002602001820160405280156123615781602001602082028036833780820191505090505b509050828160008151811061239f577f4e487b7100000000000000000000000000000000000000000000000000000000600052603260045260246000fd5b60200260200101818152505080915050919050565b6123d38473ffffffffffffffffffffffffffffffffffffffff166114c7565b15612593578373ffffffffffffffffffffffffffffffffffffffff1663f23a6e6187878686866040518663ffffffff1660e01b815260040161241995949392919061318a565b602060405180830381600087803b15801561243357600080fd5b505af192505050801561246457506040513d601f19601f820116820180604052508101906124619190612b6e565b60015b61250a57612470613959565b806308c379a014156124cd5750612485613e6c565b8061249057506124cf565b806040517f08c379a00000000000000000000000000000000000000000000000000000000081526004016124c49190613258565b60405180910390fd5b505b6040517f08c379a00000000000000000000000000000000000000000000000000000000081526004016125019061327a565b60405180910390fd5b63f23a6e6160e01b7bffffffffffffffffffffffffffffffffffffffffffffffffffffffff1916817bffffffffffffffffffffffffffffffffffffffffffffffffffffffff191614612591576040517f08c379a00000000000000000000000000000000000000000000000000000000081526004016125889061329a565b60405180910390fd5b505b505050505050565b8280546125a7906137c0565b90600052602060002090601f0160209004810192826125c95760008555612610565b82601f106125e257803560ff1916838001178555612610565b82800160010185558215612610579182015b8281111561260f5782358255916020019190600101906125f4565b5b50905061261d9190612621565b5090565b5b8082111561263a576000816000905550600101612622565b5090565b600061265161264c84613523565b6134fe565b9050808382526020820190508285602086028201111561267057600080fd5b60005b858110156126a057816126868882612754565b845260208401935060208301925050600181019050612673565b5050509392505050565b60006126bd6126b88461354f565b6134fe565b905080838252602082019050828560208602820111156126dc57600080fd5b60005b8581101561270c57816126f28882612870565b8452602084019350602083019250506001810190506126df565b5050509392505050565b60006127296127248461357b565b6134fe565b90508281526020810184848401111561274157600080fd5b61274c84828561377e565b509392505050565b60008135905061276381613f02565b92915050565b600082601f83011261277a57600080fd5b813561278a84826020860161263e565b91505092915050565b600082601f8301126127a457600080fd5b81356127b48482602086016126aa565b91505092915050565b6000813590506127cc81613f19565b92915050565b6000813590506127e181613f30565b92915050565b6000815190506127f681613f30565b92915050565b600082601f83011261280d57600080fd5b813561281d848260208601612716565b91505092915050565b60008083601f84011261283857600080fd5b8235905067ffffffffffffffff81111561285157600080fd5b60208301915083600182028301111561286957600080fd5b9250929050565b60008135905061287f81613f47565b92915050565b60006020828403121561289757600080fd5b60006128a584828501612754565b91505092915050565b600080604083850312156128c157600080fd5b60006128cf85828601612754565b92505060206128e085828601612754565b9150509250929050565b600080600080600060a0868803121561290257600080fd5b600061291088828901612754565b955050602061292188828901612754565b945050604086013567ffffffffffffffff81111561293e57600080fd5b61294a88828901612793565b935050606086013567ffffffffffffffff81111561296757600080fd5b61297388828901612793565b925050608086013567ffffffffffffffff81111561299057600080fd5b61299c888289016127fc565b9150509295509295909350565b600080600080600060a086880312156129c157600080fd5b60006129cf88828901612754565b95505060206129e088828901612754565b94505060406129f188828901612870565b9350506060612a0288828901612870565b925050608086013567ffffffffffffffff811115612a1f57600080fd5b612a2b888289016127fc565b9150509295509295909350565b60008060408385031215612a4b57600080fd5b6000612a5985828601612754565b9250506020612a6a858286016127bd565b9150509250929050565b60008060408385031215612a8757600080fd5b6000612a9585828601612754565b9250506020612aa685828601612870565b9150509250929050565b60008060408385031215612ac357600080fd5b600083013567ffffffffffffffff811115612add57600080fd5b612ae985828601612769565b925050602083013567ffffffffffffffff811115612b0657600080fd5b612b1285828601612793565b9150509250929050565b600060208284031215612b2e57600080fd5b6000612b3c848285016127bd565b91505092915050565b600060208284031215612b5757600080fd5b6000612b65848285016127d2565b91505092915050565b600060208284031215612b8057600080fd5b6000612b8e848285016127e7565b91505092915050565b60008060208385031215612baa57600080fd5b600083013567ffffffffffffffff811115612bc457600080fd5b612bd085828601612826565b92509250509250929050565b600060208284031215612bee57600080fd5b6000612bfc84828501612870565b91505092915050565b60008060408385031215612c1857600080fd5b6000612c2685828601612870565b9250506020612c3785828601612870565b9150509250929050565b6000612c4d838361309f565b60208301905092915050565b612c628161370a565b82525050565b612c71816136f8565b82525050565b6000612c82826135d1565b612c8c81856135ff565b9350612c97836135ac565b8060005b83811015612cc8578151612caf8882612c41565b9750612cba836135f2565b925050600181019050612c9b565b5085935050505092915050565b612cde8161371c565b82525050565b6000612cef826135dc565b612cf98185613610565b9350612d0981856020860161378d565b612d128161397b565b840191505092915050565b6000612d28826135e7565b612d328185613621565b9350612d4281856020860161378d565b612d4b8161397b565b840191505092915050565b6000612d61826135e7565b612d6b8185613632565b9350612d7b81856020860161378d565b80840191505092915050565b60008154612d94816137c0565b612d9e8186613632565b94506001821660008114612db95760018114612dca57612dfd565b60ff19831686528186019350612dfd565b612dd3856135bc565b60005b83811015612df557815481890152600182019150602081019050612dd6565b838801955050505b50505092915050565b6000612e13603483613621565b9150612e1e82613999565b604082019050919050565b6000612e36602883613621565b9150612e41826139e8565b604082019050919050565b6000612e59602b83613621565b9150612e6482613a37565b604082019050919050565b6000612e7c602683613621565b9150612e8782613a86565b604082019050919050565b6000612e9f602983613621565b9150612eaa82613ad5565b604082019050919050565b6000612ec2601f83613621565b9150612ecd82613b24565b602082019050919050565b6000612ee5602583613621565b9150612ef082613b4d565b604082019050919050565b6000612f08603283613621565b9150612f1382613b9c565b604082019050919050565b6000612f2b601a83613621565b9150612f3682613beb565b602082019050919050565b6000612f4e602a83613621565b9150612f5982613c14565b604082019050919050565b6000612f71601a83613621565b9150612f7c82613c63565b602082019050919050565b6000612f94600583613632565b9150612f9f82613c8c565b600582019050919050565b6000612fb7602083613621565b9150612fc282613cb5565b602082019050919050565b6000612fda601283613621565b9150612fe582613cde565b602082019050919050565b6000612ffd601383613621565b915061300882613d07565b602082019050919050565b6000613020602983613621565b915061302b82613d30565b604082019050919050565b6000613043602983613621565b915061304e82613d7f565b604082019050919050565b6000613066602883613621565b915061307182613dce565b604082019050919050565b6000613089602183613621565b915061309482613e1d565b604082019050919050565b6130a881613774565b82525050565b6130b781613774565b82525050565b60006130c98285612d87565b91506130d58284612d56565b91506130e082612f87565b91508190509392505050565b60006020820190506131016000830184612c68565b92915050565b600060208201905061311c6000830184612c59565b92915050565b600060a0820190506131376000830188612c68565b6131446020830187612c68565b81810360408301526131568186612c77565b9050818103606083015261316a8185612c77565b9050818103608083015261317e8184612ce4565b90509695505050505050565b600060a08201905061319f6000830188612c68565b6131ac6020830187612c68565b6131b960408301866130ae565b6131c660608301856130ae565b81810360808301526131d88184612ce4565b90509695505050505050565b600060208201905081810360008301526131fe8184612c77565b905092915050565b600060408201905081810360008301526132208185612c77565b905081810360208301526132348184612c77565b90509392505050565b60006020820190506132526000830184612cd5565b92915050565b600060208201905081810360008301526132728184612d1d565b905092915050565b6000602082019050818103600083015261329381612e06565b9050919050565b600060208201905081810360008301526132b381612e29565b9050919050565b600060208201905081810360008301526132d381612e4c565b9050919050565b600060208201905081810360008301526132f381612e6f565b9050919050565b6000602082019050818103600083015261331381612e92565b9050919050565b6000602082019050818103600083015261333381612eb5565b9050919050565b6000602082019050818103600083015261335381612ed8565b9050919050565b6000602082019050818103600083015261337381612efb565b9050919050565b6000602082019050818103600083015261339381612f1e565b9050919050565b600060208201905081810360008301526133b381612f41565b9050919050565b600060208201905081810360008301526133d381612f64565b9050919050565b600060208201905081810360008301526133f381612faa565b9050919050565b6000602082019050818103600083015261341381612fcd565b9050919050565b6000602082019050818103600083015261343381612ff0565b9050919050565b6000602082019050818103600083015261345381613013565b9050919050565b6000602082019050818103600083015261347381613036565b9050919050565b6000602082019050818103600083015261349381613059565b9050919050565b600060208201905081810360008301526134b38161307c565b9050919050565b60006020820190506134cf60008301846130ae565b92915050565b60006040820190506134ea60008301856130ae565b6134f760208301846130ae565b9392505050565b6000613508613519565b905061351482826137f2565b919050565b6000604051905090565b600067ffffffffffffffff82111561353e5761353d61392a565b5b602082029050602081019050919050565b600067ffffffffffffffff82111561356a5761356961392a565b5b602082029050602081019050919050565b600067ffffffffffffffff8211156135965761359561392a565b5b61359f8261397b565b9050602081019050919050565b6000819050602082019050919050565b60008190508160005260206000209050919050565b600081519050919050565b600081519050919050565b600081519050919050565b6000602082019050919050565b600082825260208201905092915050565b600082825260208201905092915050565b600082825260208201905092915050565b600081905092915050565b600061364882613774565b915061365383613774565b9250827fffffffffffffffffffffffffffffffffffffffffffffffffffffffffffffffff038211156136885761368761389d565b5b828201905092915050565b600061369e82613774565b91506136a983613774565b9250826136b9576136b86138cc565b5b828204905092915050565b60006136cf82613774565b91506136da83613774565b9250828210156136ed576136ec61389d565b5b828203905092915050565b600061370382613754565b9050919050565b600061371582613754565b9050919050565b60008115159050919050565b60007fffffffff0000000000000000000000000000000000000000000000000000000082169050919050565b600073ffffffffffffffffffffffffffffffffffffffff82169050919050565b6000819050919050565b82818337600083830152505050565b60005b838110156137ab578082015181840152602081019050613790565b838111156137ba576000848401525b50505050565b600060028204905060018216806137d857607f821691505b602082108114156137ec576137eb6138fb565b5b50919050565b6137fb8261397b565b810181811067ffffffffffffffff8211171561381a5761381961392a565b5b80604052505050565b600061382e82613774565b91507fffffffffffffffffffffffffffffffffffffffffffffffffffffffffffffffff8214156138615761386061389d565b5b600182019050919050565b600061387782613774565b915061388283613774565b925082613892576138916138cc565b5b828206905092915050565b7f4e487b7100000000000000000000000000000000000000000000000000000000600052601160045260246000fd5b7f4e487b7100000000000000000000000000000000000000000000000000000000600052601260045260246000fd5b7f4e487b7100000000000000000000000000000000000000000000000000000000600052602260045260246000fd5b7f4e487b7100000000000000000000000000000000000000000000000000000000600052604160045260246000fd5b600060033d11156139785760046000803e61397560005161398c565b90505b90565b6000601f19601f8301169050919050565b60008160e01c9050919050565b7f455243313135353a207472616e7366657220746f206e6f6e204552433131353560008201527f526563656976657220696d706c656d656e746572000000000000000000000000602082015250565b7f455243313135353a204552433131353552656365697665722072656a6563746560008201527f6420746f6b656e73000000000000000000000000000000000000000000000000602082015250565b7f455243313135353a2062616c616e636520717565727920666f7220746865207a60008201527f65726f2061646472657373000000000000000000000000000000000000000000602082015250565b7f4f776e61626c653a206e6577206f776e657220697320746865207a65726f206160008201527f6464726573730000000000000000000000000000000000000000000000000000602082015250565b7f455243313135353a2063616c6c6572206973206e6f74206f776e6572206e6f7260008201527f20617070726f7665640000000000000000000000000000000000000000000000602082015250565b7f77726f6e67206d696e742070726963652073686f756c64206265206964203000600082015250565b7f455243313135353a207472616e7366657220746f20746865207a65726f20616460008201527f6472657373000000000000000000000000000000000000000000000000000000602082015250565b7f455243313135353a207472616e736665722063616c6c6572206973206e6f742060008201527f6f776e6572206e6f7220617070726f7665640000000000000000000000000000602082015250565b7f5075626c6963206d696e74206973206e6f7420656e61626c6564000000000000600082015250565b7f455243313135353a20696e73756666696369656e742062616c616e636520666f60008201527f72207472616e7366657200000000000000000000000000000000000000000000602082015250565b7f746f206d756368204e4654206f6e20796f75722077616c6c6574000000000000600082015250565b7f2e6a736f6e000000000000000000000000000000000000000000000000000000600082015250565b7f4f776e61626c653a2063616c6c6572206973206e6f7420746865206f776e6572600082015250565b7f4d617820737570706c7920726561636865640000000000000000000000000000600082015250565b7f6e6f7468696e6720746f20776974686472617700000000000000000000000000600082015250565b7f455243313135353a2073657474696e6720617070726f76616c2073746174757360008201527f20666f722073656c660000000000000000000000000000000000000000000000602082015250565b7f455243313135353a206163636f756e747320616e6420696473206c656e67746860008201527f206d69736d617463680000000000000000000000000000000000000000000000602082015250565b7f455243313135353a2069647320616e6420616d6f756e7473206c656e6774682060008201527f6d69736d61746368000000000000000000000000000000000000000000000000602082015250565b7f455243313135353a206d696e7420746f20746865207a65726f2061646472657360008201527f7300000000000000000000000000000000000000000000000000000000000000602082015250565b600060443d1015613e7c57613eff565b613e84613519565b60043d036004823e80513d602482011167ffffffffffffffff82111715613eac575050613eff565b808201805167ffffffffffffffff811115613eca5750505050613eff565b80602083010160043d038501811115613ee7575050505050613eff565b613ef6826020018501866137f2565b82955050505050505b90565b613f0b816136f8565b8114613f1657600080fd5b50565b613f228161371c565b8114613f2d57600080fd5b50565b613f3981613728565b8114613f4457600080fd5b50565b613f5081613774565b8114613f5b57600080fd5b5056fea26469706673582212207913b90cf283b352c996b871a6ea71834f6d8cbe41b6950720467ecb4a3c0b2f64736f6c6343000804003368747470733a2f2f6e6c742e726f636b732f6d657461646174612f7b69647d2e6a736f6e",
  "linkReferences": {},
  "deployedLinkReferences": {}
}