{
	"_format": "hh-sol-artifact-1",
	"contractName": "NLTNFT",
	"sourceName": "contracts/Nlt.sol",
	"abi": [
		{
			"inputs": [],
			"stateMutability": "nonpayable",
			"type": "constructor"
		},
		{
			"anonymous": false,
			"inputs": [
				{
					"indexed": true,
					"internalType": "address",
					"name": "account",
					"type": "address"
				},
				{
					"indexed": true,
					"internalType": "address",
					"name": "operator",
					"type": "address"
				},
				{
					"indexed": false,
					"internalType": "bool",
					"name": "approved",
					"type": "bool"
				}
			],
			"name": "ApprovalForAll",
			"type": "event"
		},
		{
			"anonymous": false,
			"inputs": [
				{
					"indexed": true,
					"internalType": "address",
					"name": "previousOwner",
					"type": "address"
				},
				{
					"indexed": true,
					"internalType": "address",
					"name": "newOwner",
					"type": "address"
				}
			],
			"name": "OwnershipTransferred",
			"type": "event"
		},
		{
			"anonymous": false,
			"inputs": [
				{
					"indexed": true,
					"internalType": "address",
					"name": "operator",
					"type": "address"
				},
				{
					"indexed": true,
					"internalType": "address",
					"name": "from",
					"type": "address"
				},
				{
					"indexed": true,
					"internalType": "address",
					"name": "to",
					"type": "address"
				},
				{
					"indexed": false,
					"internalType": "uint256[]",
					"name": "ids",
					"type": "uint256[]"
				},
				{
					"indexed": false,
					"internalType": "uint256[]",
					"name": "values",
					"type": "uint256[]"
				}
			],
			"name": "TransferBatch",
			"type": "event"
		},
		{
			"anonymous": false,
			"inputs": [
				{
					"indexed": true,
					"internalType": "address",
					"name": "operator",
					"type": "address"
				},
				{
					"indexed": true,
					"internalType": "address",
					"name": "from",
					"type": "address"
				},
				{
					"indexed": true,
					"internalType": "address",
					"name": "to",
					"type": "address"
				},
				{
					"indexed": false,
					"internalType": "uint256",
					"name": "id",
					"type": "uint256"
				},
				{
					"indexed": false,
					"internalType": "uint256",
					"name": "value",
					"type": "uint256"
				}
			],
			"name": "TransferSingle",
			"type": "event"
		},
		{
			"anonymous": false,
			"inputs": [
				{
					"indexed": false,
					"internalType": "string",
					"name": "value",
					"type": "string"
				},
				{
					"indexed": true,
					"internalType": "uint256",
					"name": "id",
					"type": "uint256"
				}
			],
			"name": "URI",
			"type": "event"
		},
		{
			"inputs": [
				{
					"internalType": "uint256",
					"name": "_price",
					"type": "uint256"
				},
				{
					"internalType": "uint256",
					"name": "_maxSupply",
					"type": "uint256"
				}
			],
			"name": "addNewToken",
			"outputs": [],
			"stateMutability": "nonpayable",
			"type": "function"
		},
		{
			"inputs": [
				{
					"internalType": "address",
					"name": "account",
					"type": "address"
				},
				{
					"internalType": "uint256",
					"name": "id",
					"type": "uint256"
				}
			],
			"name": "balanceOf",
			"outputs": [
				{
					"internalType": "uint256",
					"name": "",
					"type": "uint256"
				}
			],
			"stateMutability": "view",
			"type": "function"
		},
		{
			"inputs": [
				{
					"internalType": "address[]",
					"name": "accounts",
					"type": "address[]"
				},
				{
					"internalType": "uint256[]",
					"name": "ids",
					"type": "uint256[]"
				}
			],
			"name": "balanceOfBatch",
			"outputs": [
				{
					"internalType": "uint256[]",
					"name": "",
					"type": "uint256[]"
				}
			],
			"stateMutability": "view",
			"type": "function"
		},
		{
			"inputs": [
				{
					"internalType": "address",
					"name": "account",
					"type": "address"
				},
				{
					"internalType": "address",
					"name": "operator",
					"type": "address"
				}
			],
			"name": "isApprovedForAll",
			"outputs": [
				{
					"internalType": "bool",
					"name": "",
					"type": "bool"
				}
			],
			"stateMutability": "view",
			"type": "function"
		},
		{
			"inputs": [],
			"name": "isPublicMintEnable",
			"outputs": [
				{
					"internalType": "bool",
					"name": "",
					"type": "bool"
				}
			],
			"stateMutability": "view",
			"type": "function"
		},
		{
			"inputs": [],
			"name": "maxPerWallet",
			"outputs": [
				{
					"internalType": "uint256",
					"name": "",
					"type": "uint256"
				}
			],
			"stateMutability": "view",
			"type": "function"
		},
		{
			"inputs": [
				{
					"internalType": "uint256",
					"name": "",
					"type": "uint256"
				}
			],
			"name": "maxSupplys",
			"outputs": [
				{
					"internalType": "uint256",
					"name": "",
					"type": "uint256"
				}
			],
			"stateMutability": "view",
			"type": "function"
		},
		{
			"inputs": [
				{
					"internalType": "uint256",
					"name": "id",
					"type": "uint256"
				}
			],
			"name": "mint",
			"outputs": [],
			"stateMutability": "payable",
			"type": "function"
		},
		{
			"inputs": [
				{
					"internalType": "uint256",
					"name": "",
					"type": "uint256"
				}
			],
			"name": "mintPrices",
			"outputs": [
				{
					"internalType": "uint256",
					"name": "",
					"type": "uint256"
				}
			],
			"stateMutability": "view",
			"type": "function"
		},
		{
			"inputs": [],
			"name": "owner",
			"outputs": [
				{
					"internalType": "address",
					"name": "",
					"type": "address"
				}
			],
			"stateMutability": "view",
			"type": "function"
		},
		{
			"inputs": [],
			"name": "renounceOwnership",
			"outputs": [],
			"stateMutability": "nonpayable",
			"type": "function"
		},
		{
			"inputs": [
				{
					"internalType": "address",
					"name": "from",
					"type": "address"
				},
				{
					"internalType": "address",
					"name": "to",
					"type": "address"
				},
				{
					"internalType": "uint256[]",
					"name": "ids",
					"type": "uint256[]"
				},
				{
					"internalType": "uint256[]",
					"name": "amounts",
					"type": "uint256[]"
				},
				{
					"internalType": "bytes",
					"name": "data",
					"type": "bytes"
				}
			],
			"name": "safeBatchTransferFrom",
			"outputs": [],
			"stateMutability": "nonpayable",
			"type": "function"
		},
		{
			"inputs": [
				{
					"internalType": "address",
					"name": "from",
					"type": "address"
				},
				{
					"internalType": "address",
					"name": "to",
					"type": "address"
				},
				{
					"internalType": "uint256",
					"name": "id",
					"type": "uint256"
				},
				{
					"internalType": "uint256",
					"name": "amount",
					"type": "uint256"
				},
				{
					"internalType": "bytes",
					"name": "data",
					"type": "bytes"
				}
			],
			"name": "safeTransferFrom",
			"outputs": [],
			"stateMutability": "nonpayable",
			"type": "function"
		},
		{
			"inputs": [
				{
					"internalType": "address",
					"name": "operator",
					"type": "address"
				},
				{
					"internalType": "bool",
					"name": "approved",
					"type": "bool"
				}
			],
			"name": "setApprovalForAll",
			"outputs": [],
			"stateMutability": "nonpayable",
			"type": "function"
		},
		{
			"inputs": [
				{
					"internalType": "string",
					"name": "_basetokenUri",
					"type": "string"
				}
			],
			"name": "setBaseTokenUri",
			"outputs": [],
			"stateMutability": "nonpayable",
			"type": "function"
		},
		{
			"inputs": [
				{
					"internalType": "bool",
					"name": "_isPublicMintEnable",
					"type": "bool"
				}
			],
			"name": "setIsPublicMintEnable",
			"outputs": [],
			"stateMutability": "nonpayable",
			"type": "function"
		},
		{
			"inputs": [
				{
					"internalType": "bytes4",
					"name": "interfaceId",
					"type": "bytes4"
				}
			],
			"name": "supportsInterface",
			"outputs": [
				{
					"internalType": "bool",
					"name": "",
					"type": "bool"
				}
			],
			"stateMutability": "view",
			"type": "function"
		},
		{
			"inputs": [
				{
					"internalType": "uint256",
					"name": "",
					"type": "uint256"
				}
			],
			"name": "tiers",
			"outputs": [
				{
					"internalType": "uint256",
					"name": "",
					"type": "uint256"
				}
			],
			"stateMutability": "view",
			"type": "function"
		},
		{
			"inputs": [
				{
					"internalType": "uint256",
					"name": "",
					"type": "uint256"
				}
			],
			"name": "totalSupplys",
			"outputs": [
				{
					"internalType": "uint256",
					"name": "",
					"type": "uint256"
				}
			],
			"stateMutability": "view",
			"type": "function"
		},
		{
			"inputs": [
				{
					"internalType": "address",
					"name": "newOwner",
					"type": "address"
				}
			],
			"name": "transferOwnership",
			"outputs": [],
			"stateMutability": "nonpayable",
			"type": "function"
		},
		{
			"inputs": [
				{
					"internalType": "uint256",
					"name": "_tokenId",
					"type": "uint256"
				}
			],
			"name": "uri",
			"outputs": [
				{
					"internalType": "string",
					"name": "",
					"type": "string"
				}
			],
			"stateMutability": "view",
			"type": "function"
		},
		{
			"inputs": [
				{
					"internalType": "address",
					"name": "",
					"type": "address"
				}
			],
			"name": "walletMint",
			"outputs": [
				{
					"internalType": "uint256",
					"name": "",
					"type": "uint256"
				}
			],
			"stateMutability": "view",
			"type": "function"
		},
		{
			"inputs": [],
			"name": "withdraw",
			"outputs": [],
			"stateMutability": "nonpayable",
			"type": "function"
		},
		{
			"inputs": [],
			"name": "withdrawWallet",
			"outputs": [
				{
					"internalType": "address payable",
					"name": "",
					"type": "address"
				}
			],
			"stateMutability": "view",
			"type": "function"
		}
	],
	"bytecode": "0x60806040523480156200001157600080fd5b5060405180606001604052806024815260200162002b97602491396200003781620001e7565b50620000433362000200565b60408051606081018252600081526001602082015260029181019190915262000071906004906003620005c2565b506040805160608101825267016345785d8a000081526702c68af0bb140000602082015267058d15e17628000091810191909152620000b590600590600362000617565b506040805160608101825260018082526020820181905291810191909152620000e3906006906003620005c2565b506040805160608101825261012c815260646020820152601e918101919091526200011390600790600362000660565b506009805460ff19166001179055600360085560408051808201909152601b8082527f68747470733a2f2f6e6c742e726f636b732f6d657461646174612f000000000060209092019182526200016c91600a91620006a4565b5060005b600454811015620001e057620001cb3360048381548110620001a257634e487b7160e01b600052603260045260246000fd5b90600052602060002001546001604051806020016040528060008152506200025260201b60201c565b80620001d781620008a6565b91505062000170565b5062000982565b8051620001fc906002906020840190620006a4565b5050565b600380546001600160a01b038381166001600160a01b0319831681179093556040519116919082907f8be0079c531659141344cd1fd0a4f28419497f9722a3daafe3b4186f6b6457e090600090a35050565b6001600160a01b038416620002b85760405162461bcd60e51b815260206004820152602160248201527f455243313135353a206d696e7420746f20746865207a65726f206164647265736044820152607360f81b60648201526084015b60405180910390fd5b336000620002c68562000374565b90506000620002d58562000374565b90506000868152602081815260408083206001600160a01b038b168452909152812080548792906200030990849062000813565b909155505060408051878152602081018790526001600160a01b03808a1692600092918716917fc3d58168c5ae7397731d063d5bbf3d657854427343f4c083240f7aacaa2d0f62910160405180910390a46200036b83600089898989620003d6565b50505050505050565b60408051600180825281830190925260609160009190602080830190803683370190505090508281600081518110620003bd57634e487b7160e01b600052603260045260246000fd5b602090810291909101015292915050565b505050505050565b620003f5846001600160a01b0316620005b360201b62000e2f1760201c565b15620003ce5760405163f23a6e6160e01b81526001600160a01b0385169063f23a6e6190620004319089908990889088908890600401620007b7565b602060405180830381600087803b1580156200044c57600080fd5b505af19250505080156200047f575060408051601f3d908101601f191682019092526200047c9181019062000738565b60015b62000540576200048e620008da565b806308c379a01415620004cf5750620004a6620008f3565b80620004b35750620004d1565b8060405162461bcd60e51b8152600401620002af9190620007fe565b505b60405162461bcd60e51b815260206004820152603460248201527f455243313135353a207472616e7366657220746f206e6f6e204552433131353560448201527f526563656976657220696d706c656d656e7465720000000000000000000000006064820152608401620002af565b6001600160e01b0319811663f23a6e6160e01b146200036b5760405162461bcd60e51b815260206004820152602860248201527f455243313135353a204552433131353552656365697665722072656a656374656044820152676420746f6b656e7360c01b6064820152608401620002af565b6001600160a01b03163b151590565b82805482825590600052602060002090810192821562000605579160200282015b8281111562000605578251829060ff16905591602001919060010190620005e3565b506200061392915062000721565b5090565b82805482825590600052602060002090810192821562000605579160200282015b828111156200060557825182906001600160401b031690559160200191906001019062000638565b82805482825590600052602060002090810192821562000605579160200282015b8281111562000605578251829061ffff1690559160200191906001019062000681565b828054620006b2906200082e565b90600052602060002090601f016020900481019282620006d6576000855562000605565b82601f10620006f157805160ff191683800117855562000605565b8280016001018555821562000605579182015b828111156200060557825182559160200191906001019062000704565b5b8082111562000613576000815560010162000722565b6000602082840312156200074a578081fd5b81516001600160e01b03198116811462000762578182fd5b9392505050565b60008151808452815b81811015620007905760208185018101518683018201520162000772565b81811115620007a25782602083870101525b50601f01601f19169290920160200192915050565b6001600160a01b03868116825285166020820152604081018490526060810183905260a060808201819052600090620007f39083018462000769565b979650505050505050565b60208152600062000762602083018462000769565b60008219821115620008295762000829620008c4565b500190565b600181811c908216806200084357607f821691505b602082108114156200086557634e487b7160e01b600052602260045260246000fd5b50919050565b601f8201601f191681016001600160401b03811182821017156200089f57634e487b7160e01b600052604160045260246000fd5b6040525050565b6000600019821415620008bd57620008bd620008c4565b5060010190565b634e487b7160e01b600052601160045260246000fd5b600060033d1115620008f057600481823e5160e01c5b90565b600060443d1015620009025790565b6040516003193d81016004833e81513d6001600160401b0380831160248401831017156200093257505050505090565b82850191508151818111156200094b5750505050505090565b843d8701016020828501011115620009665750505050505090565b62000977602082860101876200086b565b509095945050505050565b61220580620009926000396000f3fe60806040526004361061014a5760003560e01c80638584b2e0116100b6578063a22cb4651161006f578063a22cb465146103be578063b70056e4146103de578063c45580d4146103fe578063e985e9c51461041e578063f242432a14610467578063f2fde38b1461048757600080fd5b80638584b2e0146102fb57806385d178f41461031b57806389f0d401146103535780638da5cb5b1461036d57806395652cfa1461038b578063a0712d68146103ab57600080fd5b80633ccfd60b116101085780633ccfd60b1461024e578063453c2310146102635780634e1273f4146102795780636187b33e146102a657806364298d2d146102c6578063715018a6146102e657600080fd5b8062fdd58e1461014f57806301ffc9a714610182578063039af9eb146101b25780630e89341c146101d25780631056ae31146101ff5780632eb2c2d61461022c575b600080fd5b34801561015b57600080fd5b5061016f61016a366004611a85565b6104a7565b6040519081526020015b60405180910390f35b34801561018e57600080fd5b506101a261019d366004611b93565b61053e565b6040519015158152602001610179565b3480156101be57600080fd5b5061016f6101cd366004611c38565b610590565b3480156101de57600080fd5b506101f26101ed366004611c38565b6105b1565b6040516101799190611e88565b34801561020b57600080fd5b5061016f61021a366004611900565b600c6020526000908152604090205481565b34801561023857600080fd5b5061024c610247366004611953565b6105e5565b005b34801561025a57600080fd5b5061024c61067c565b34801561026f57600080fd5b5061016f60085481565b34801561028557600080fd5b50610299610294366004611aae565b610728565b6040516101799190611e50565b3480156102b257600080fd5b5061016f6102c1366004611c38565b61088a565b3480156102d257600080fd5b5061024c6102e1366004611c50565b61089a565b3480156102f257600080fd5b5061024c6109e8565b34801561030757600080fd5b5061016f610316366004611c38565b610a1e565b34801561032757600080fd5b50600b5461033b906001600160a01b031681565b6040516001600160a01b039091168152602001610179565b34801561035f57600080fd5b506009546101a29060ff1681565b34801561037957600080fd5b506003546001600160a01b031661033b565b34801561039757600080fd5b5061024c6103a6366004611bcb565b610a2e565b61024c6103b9366004611c38565b610a64565b3480156103ca57600080fd5b5061024c6103d9366004611a5c565b610cb8565b3480156103ea57600080fd5b5061016f6103f9366004611c38565b610cc3565b34801561040a57600080fd5b5061024c610419366004611b79565b610cd3565b34801561042a57600080fd5b506101a2610439366004611921565b6001600160a01b03918216600090815260016020908152604080832093909416825291909152205460ff1690565b34801561047357600080fd5b5061024c6104823660046119f9565b610d10565b34801561049357600080fd5b5061024c6104a2366004611900565b610d97565b60006001600160a01b0383166105185760405162461bcd60e51b815260206004820152602b60248201527f455243313135353a2062616c616e636520717565727920666f7220746865207a60448201526a65726f206164647265737360a81b60648201526084015b60405180910390fd5b506000908152602081815260408083206001600160a01b03949094168352929052205490565b60006001600160e01b03198216636cdb3d1360e11b148061056f57506001600160e01b031982166303a24d0760e21b145b8061058a57506301ffc9a760e01b6001600160e01b03198316145b92915050565b600481815481106105a057600080fd5b600091825260209091200154905081565b6060600a6105be83610e3e565b6040516020016105cf929190611cf3565b6040516020818303038152906040529050919050565b6001600160a01b03851633148061060157506106018533610439565b6106685760405162461bcd60e51b815260206004820152603260248201527f455243313135353a207472616e736665722063616c6c6572206973206e6f74206044820152711bdddb995c881b9bdc88185c1c1c9bdd995960721b606482015260840161050f565b6106758585858585610f60565b5050505050565b6003546001600160a01b031633146106a65760405162461bcd60e51b815260040161050f90611f72565b600047116106ec5760405162461bcd60e51b81526020600482015260136024820152726e6f7468696e6720746f20776974686472617760681b604482015260640161050f565b6003546040516001600160a01b03909116904780156108fc02916000818181858888f19350505050158015610725573d6000803e3d6000fd5b50565b6060815183511461078d5760405162461bcd60e51b815260206004820152602960248201527f455243313135353a206163636f756e747320616e6420696473206c656e677468604482015268040dad2e6dac2e8c6d60bb1b606482015260840161050f565b6000835167ffffffffffffffff8111156107b757634e487b7160e01b600052604160045260246000fd5b6040519080825280602002602001820160405280156107e0578160200160208202803683370190505b50905060005b84518110156108825761084785828151811061081257634e487b7160e01b600052603260045260246000fd5b602002602001015185838151811061083a57634e487b7160e01b600052603260045260246000fd5b60200260200101516104a7565b82828151811061086757634e487b7160e01b600052603260045260246000fd5b602090810291909101015261087b816120a6565b90506107e6565b509392505050565b600581815481106105a057600080fd5b6003546001600160a01b031633146108c45760405162461bcd60e51b815260040161050f90611f72565b6004546000906108d690600190611ff7565b60048054600180820183557f8a35acfbc15ff81a39ae7d344fd709f28e8600b4aa8c65c6b64bfe7fe36bd19b820191909155600580548083019091557f036b6384b5eca791c62761152d0c79bb0604c104a5fb6f4eb0703f3154bb3db001869055600680548083019091557ff652222313e28459528d920b65115c16c04f3efc82aaedc97be59f3f377c0d3f018190556007805491820181556000527fa66cc928b5edb82af9bd49922954155ab7b0942694bea4ce44661d9a8736c6880184905580549192506109e391339190849081106109c157634e487b7160e01b600052603260045260246000fd5b9060005260206000200154600160405180602001604052806000815250611159565b505050565b6003546001600160a01b03163314610a125760405162461bcd60e51b815260040161050f90611f72565b610a1c600061126d565b565b600781815481106105a057600080fd5b6003546001600160a01b03163314610a585760405162461bcd60e51b815260040161050f90611f72565b6109e3600a8383611758565b60095460ff16610ab65760405162461bcd60e51b815260206004820152601a60248201527f5075626c6963206d696e74206973206e6f7420656e61626c6564000000000000604482015260640161050f565b600854336000908152600c60205260409020541115610b175760405162461bcd60e51b815260206004820152601a60248201527f746f206d756368204e4654206f6e20796f75722077616c6c6574000000000000604482015260640161050f565b60005b600454811015610cb45780821415610ca25760078181548110610b4d57634e487b7160e01b600052603260045260246000fd5b906000526020600020015460068281548110610b7957634e487b7160e01b600052603260045260246000fd5b90600052602060002001541115610bc75760405162461bcd60e51b815260206004820152601260248201527113585e081cdd5c1c1b1e481c995858da195960721b604482015260640161050f565b60058181548110610be857634e487b7160e01b600052603260045260246000fd5b90600052602060002001543414610c415760405162461bcd60e51b815260206004820152601f60248201527f77726f6e67206d696e742070726963652073686f756c64206265206964203000604482015260640161050f565b60068181548110610c6257634e487b7160e01b600052603260045260246000fd5b60009182526020822001805491610c78836120a6565b9190505550610ca233600483815481106109c157634e487b7160e01b600052603260045260246000fd5b80610cac816120a6565b915050610b1a565b5050565b610cb43383836112bf565b600681815481106105a057600080fd5b6003546001600160a01b03163314610cfd5760405162461bcd60e51b815260040161050f90611f72565b6009805460ff1916911515919091179055565b6001600160a01b038516331480610d2c5750610d2c8533610439565b610d8a5760405162461bcd60e51b815260206004820152602960248201527f455243313135353a2063616c6c6572206973206e6f74206f776e6572206e6f7260448201526808185c1c1c9bdd995960ba1b606482015260840161050f565b61067585858585856113a0565b6003546001600160a01b03163314610dc15760405162461bcd60e51b815260040161050f90611f72565b6001600160a01b038116610e265760405162461bcd60e51b815260206004820152602660248201527f4f776e61626c653a206e6577206f776e657220697320746865207a65726f206160448201526564647265737360d01b606482015260840161050f565b6107258161126d565b6001600160a01b03163b151590565b606081610e625750506040805180820190915260018152600360fc1b602082015290565b8160005b8115610e8c5780610e76816120a6565b9150610e859050600a83611fe3565b9150610e66565b60008167ffffffffffffffff811115610eb557634e487b7160e01b600052604160045260246000fd5b6040519080825280601f01601f191660200182016040528015610edf576020820181803683370190505b5090505b8415610f5857610ef4600183611ff7565b9150610f01600a866120c1565b610f0c906030611fcb565b60f81b818381518110610f2f57634e487b7160e01b600052603260045260246000fd5b60200101906001600160f81b031916908160001a905350610f51600a86611fe3565b9450610ee3565b949350505050565b8151835114610fc25760405162461bcd60e51b815260206004820152602860248201527f455243313135353a2069647320616e6420616d6f756e7473206c656e677468206044820152670dad2e6dac2e8c6d60c31b606482015260840161050f565b6001600160a01b038416610fe85760405162461bcd60e51b815260040161050f90611ee3565b3360005b84518110156110eb57600085828151811061101757634e487b7160e01b600052603260045260246000fd5b60200260200101519050600085838151811061104357634e487b7160e01b600052603260045260246000fd5b602090810291909101810151600084815280835260408082206001600160a01b038e1683529093529190912054909150818110156110935760405162461bcd60e51b815260040161050f90611f28565b6000838152602081815260408083206001600160a01b038e8116855292528083208585039055908b168252812080548492906110d0908490611fcb565b92505081905550505050806110e4906120a6565b9050610fec565b50846001600160a01b0316866001600160a01b0316826001600160a01b03167f4a39dc06d4c0dbc64b70af90fd698a233a518aa5d07e595d983b8c0526c8f7fb878760405161113b929190611e63565b60405180910390a46111518187878787876114ca565b505050505050565b6001600160a01b0384166111b95760405162461bcd60e51b815260206004820152602160248201527f455243313135353a206d696e7420746f20746865207a65726f206164647265736044820152607360f81b606482015260840161050f565b3360006111c585611635565b905060006111d285611635565b90506000868152602081815260408083206001600160a01b038b16845290915281208054879290611204908490611fcb565b909155505060408051878152602081018790526001600160a01b03808a1692600092918716917fc3d58168c5ae7397731d063d5bbf3d657854427343f4c083240f7aacaa2d0f62910160405180910390a46112648360008989898961168e565b50505050505050565b600380546001600160a01b038381166001600160a01b0319831681179093556040519116919082907f8be0079c531659141344cd1fd0a4f28419497f9722a3daafe3b4186f6b6457e090600090a35050565b816001600160a01b0316836001600160a01b031614156113335760405162461bcd60e51b815260206004820152602960248201527f455243313135353a2073657474696e6720617070726f76616c20737461747573604482015268103337b91039b2b63360b91b606482015260840161050f565b6001600160a01b03838116600081815260016020908152604080832094871680845294825291829020805460ff191686151590811790915591519182527f17307eab39ab6107e8899845ad3d59bd9653f200f220920489ca2b5937696c31910160405180910390a3505050565b6001600160a01b0384166113c65760405162461bcd60e51b815260040161050f90611ee3565b3360006113d285611635565b905060006113df85611635565b90506000868152602081815260408083206001600160a01b038c168452909152902054858110156114225760405162461bcd60e51b815260040161050f90611f28565b6000878152602081815260408083206001600160a01b038d8116855292528083208985039055908a1682528120805488929061145f908490611fcb565b909155505060408051888152602081018890526001600160a01b03808b16928c821692918816917fc3d58168c5ae7397731d063d5bbf3d657854427343f4c083240f7aacaa2d0f62910160405180910390a46114bf848a8a8a8a8a61168e565b505050505050505050565b6001600160a01b0384163b156111515760405163bc197c8160e01b81526001600160a01b0385169063bc197c819061150e9089908990889088908890600401611dad565b602060405180830381600087803b15801561152857600080fd5b505af1925050508015611558575060408051601f3d908101601f1916820190925261155591810190611baf565b60015b61160557611564612117565b806308c379a0141561159e575061157961212f565b8061158457506115a0565b8060405162461bcd60e51b815260040161050f9190611e88565b505b60405162461bcd60e51b815260206004820152603460248201527f455243313135353a207472616e7366657220746f206e6f6e20455243313135356044820152732932b1b2b4bb32b91034b6b83632b6b2b73a32b960611b606482015260840161050f565b6001600160e01b0319811663bc197c8160e01b146112645760405162461bcd60e51b815260040161050f90611e9b565b6040805160018082528183019092526060916000919060208083019080368337019050509050828160008151811061167d57634e487b7160e01b600052603260045260246000fd5b602090810291909101015292915050565b6001600160a01b0384163b156111515760405163f23a6e6160e01b81526001600160a01b0385169063f23a6e61906116d29089908990889088908890600401611e0b565b602060405180830381600087803b1580156116ec57600080fd5b505af192505050801561171c575060408051601f3d908101601f1916820190925261171991810190611baf565b60015b61172857611564612117565b6001600160e01b0319811663f23a6e6160e01b146112645760405162461bcd60e51b815260040161050f90611e9b565b8280546117649061203e565b90600052602060002090601f01602090048101928261178657600085556117cc565b82601f1061179f5782800160ff198235161785556117cc565b828001600101855582156117cc579182015b828111156117cc5782358255916020019190600101906117b1565b506117d89291506117dc565b5090565b5b808211156117d857600081556001016117dd565b80356001600160a01b038116811461180857600080fd5b919050565b600082601f83011261181d578081fd5b8135602061182a82611fa7565b6040516118378282612079565b8381528281019150858301600585901b87018401881015611856578586fd5b855b8581101561187457813584529284019290840190600101611858565b5090979650505050505050565b8035801515811461180857600080fd5b600082601f8301126118a1578081fd5b813567ffffffffffffffff8111156118bb576118bb612101565b6040516118d2601f8301601f191660200182612079565b8181528460208386010111156118e6578283fd5b816020850160208301379081016020019190915292915050565b600060208284031215611911578081fd5b61191a826117f1565b9392505050565b60008060408385031215611933578081fd5b61193c836117f1565b915061194a602084016117f1565b90509250929050565b600080600080600060a0868803121561196a578081fd5b611973866117f1565b9450611981602087016117f1565b9350604086013567ffffffffffffffff8082111561199d578283fd5b6119a989838a0161180d565b945060608801359150808211156119be578283fd5b6119ca89838a0161180d565b935060808801359150808211156119df578283fd5b506119ec88828901611891565b9150509295509295909350565b600080600080600060a08688031215611a10578081fd5b611a19866117f1565b9450611a27602087016117f1565b93506040860135925060608601359150608086013567ffffffffffffffff811115611a50578182fd5b6119ec88828901611891565b60008060408385031215611a6e578182fd5b611a77836117f1565b915061194a60208401611881565b60008060408385031215611a97578182fd5b611aa0836117f1565b946020939093013593505050565b60008060408385031215611ac0578182fd5b823567ffffffffffffffff80821115611ad7578384fd5b818501915085601f830112611aea578384fd5b81356020611af782611fa7565b604051611b048282612079565b8381528281019150858301600585901b870184018b1015611b23578889fd5b8896505b84871015611b4c57611b38816117f1565b835260019690960195918301918301611b27565b5096505086013592505080821115611b62578283fd5b50611b6f8582860161180d565b9150509250929050565b600060208284031215611b8a578081fd5b61191a82611881565b600060208284031215611ba4578081fd5b813561191a816121b9565b600060208284031215611bc0578081fd5b815161191a816121b9565b60008060208385031215611bdd578182fd5b823567ffffffffffffffff80821115611bf4578384fd5b818501915085601f830112611c07578384fd5b813581811115611c15578485fd5b866020828501011115611c26578485fd5b60209290920196919550909350505050565b600060208284031215611c49578081fd5b5035919050565b60008060408385031215611c62578182fd5b50508035926020909101359150565b6000815180845260208085019450808401835b83811015611ca057815187529582019590820190600101611c84565b509495945050505050565b60008151808452611cc381602086016020860161200e565b601f01601f19169290920160200192915050565b60008151611ce981856020860161200e565b9290920192915050565b600080845482600182811c915080831680611d0f57607f831692505b6020808410821415611d2f57634e487b7160e01b87526022600452602487fd5b818015611d435760018114611d5457611d80565b60ff19861689528489019650611d80565b60008b815260209020885b86811015611d785781548b820152908501908301611d5f565b505084890196505b505050505050611da4611d938286611cd7565b64173539b7b760d91b815260050190565b95945050505050565b6001600160a01b0386811682528516602082015260a060408201819052600090611dd990830186611c71565b8281036060840152611deb8186611c71565b90508281036080840152611dff8185611cab565b98975050505050505050565b6001600160a01b03868116825285166020820152604081018490526060810183905260a060808201819052600090611e4590830184611cab565b979650505050505050565b60208152600061191a6020830184611c71565b604081526000611e766040830185611c71565b8281036020840152611da48185611c71565b60208152600061191a6020830184611cab565b60208082526028908201527f455243313135353a204552433131353552656365697665722072656a656374656040820152676420746f6b656e7360c01b606082015260800190565b60208082526025908201527f455243313135353a207472616e7366657220746f20746865207a65726f206164604082015264647265737360d81b606082015260800190565b6020808252602a908201527f455243313135353a20696e73756666696369656e742062616c616e636520666f60408201526939103a3930b739b332b960b11b606082015260800190565b6020808252818101527f4f776e61626c653a2063616c6c6572206973206e6f7420746865206f776e6572604082015260600190565b600067ffffffffffffffff821115611fc157611fc1612101565b5060051b60200190565b60008219821115611fde57611fde6120d5565b500190565b600082611ff257611ff26120eb565b500490565b600082821015612009576120096120d5565b500390565b60005b83811015612029578181015183820152602001612011565b83811115612038576000848401525b50505050565b600181811c9082168061205257607f821691505b6020821081141561207357634e487b7160e01b600052602260045260246000fd5b50919050565b601f8201601f1916810167ffffffffffffffff8111828210171561209f5761209f612101565b6040525050565b60006000198214156120ba576120ba6120d5565b5060010190565b6000826120d0576120d06120eb565b500690565b634e487b7160e01b600052601160045260246000fd5b634e487b7160e01b600052601260045260246000fd5b634e487b7160e01b600052604160045260246000fd5b600060033d111561212c57600481823e5160e01c5b90565b600060443d101561213d5790565b6040516003193d81016004833e81513d67ffffffffffffffff816024840111818411171561216d57505050505090565b82850191508151818111156121855750505050505090565b843d870101602082850101111561219f5750505050505090565b6121ae60208286010187612079565b509095945050505050565b6001600160e01b03198116811461072557600080fdfea26469706673582212200f961b33e94c60a1ed91ba352417a4f1cd8b072d785fbd1d2abc4bf81320d33764736f6c6343000804003368747470733a2f2f6e6c742e726f636b732f6d657461646174612f7b69647d2e6a736f6e",
	"linkReferences": {},
	"deployedLinkReferences": {}
}